:100000000C946F000C9497000C9497000C9497003C
:100010000C9497000C9497000C9497000C94970004
:100020000C9497000C9497000C9497000C949700F4
:100030000C9497000C9497000C9497000C949700E4
:100040000C9446060C9497000C94B6060C949006FB
:100050000C9497000C9497000C9497000C949700C4
:100060000C94E8060C949700084AD73B3BCE016EEF
:1000700084BCBFFDC12F3D6C74319ABD56833DDAFF
:100080003D00C77F11BED9E4BB4C3E916BAAAABE0E
:10009000000000803F0000000000250028002B0029
:1000A000040404040404040402020202020203031E
:1000B0000303030301020408102040800102040826
:1000C00010200102040810200000000800020100B6
:1000D00000030407000000000000000007081124CE
:1000E0001FBECFEFD8E0DEBFCDBF11E0A0E0B1E092
:1000F000E0EBFFE102C005900D92A633B107D9F7FE
:1001000022E0A6E3B1E001C01D92A03EB207E1F7F4
:1001100010E0CFE6D0E004C02197FE010E94D00F8E
:10012000CE36D107C9F70E9440080C94D60F0C9424
:10013000000090913602809135022FEF3FEF981723
:1001400048F4E92FF0E0EB5EFD4F208130E09F5F47
:1001500090933602C901089590913602809135023C
:100160002FEF3FEF981748F4E92FF0E0EB5EFD4FDB
:10017000208130E09F5F90933602C901089590E09E
:10018000FC01E853FF4F2491FC01EC54FF4F3491E4
:10019000FC01E056FF4FE491EE23C9F0222339F031
:1001A000233001F1A8F4213019F1223029F1F0E0D7
:1001B000EE0FFF1FEA56FF4FA591B4918FB7F89449
:1001C000EC91611126C030953E233C938FBF08957A
:1001D0002730A9F02830C9F0243049F780918000F9
:1001E0008F7D03C0809180008F7780938000DFCF68
:1001F00084B58F7784BDDBCF84B58F7DFBCF8091B5
:10020000B0008F778093B000D2CF8091B0008F7D07
:10021000F9CF3E2BDACF806480937C0080917A0006
:10022000806480937A0080917A0086FDFCCF809173
:1002300078009091790008953FB7F8948091C101BA
:100240009091C201A091C301B091C40126B5A89BB1
:1002500005C02F3F19F00196A11DB11D3FBFBA2F58
:10026000A92F982F8827BC01CD01620F711D811D18
:10027000911D43E0660F771F881F991F4A95D1F79C
:10028000089508950895AF92BF92CF92DF92EF92B2
:10029000FF920F931F93CF93DF936C017B018B0130
:1002A000040F151FEB015E01AE18BF08C017D10780
:1002B00059F06991D601ED91FC910190F081E02D0A
:1002C000C6010995892B79F7C501DF91CF911F915F
:1002D0000F91FF90EF90DF90CF90BF90AF90089577
:1002E000FC01538D448D252F30E0842F90E0821B3C
:1002F000930B541710F0CF96089501970895FC01C1
:10030000918D828D981761F0A28DAE0FBF2FB11D18
:100310005D968C91928D9F5F9F73928F90E0089570
:100320008FEF9FEF0895FC01918D828D981731F02A
:10033000828DE80FF11D858D90E008958FEF9FEF7E
:100340000895FC01918D228D892F90E0805C9F4F54
:10035000821B91098F739927089587E392E00E9489
:10036000A10121E0892B09F420E0822F089580E08B
:1003700090E0892B29F00E94AD0181110C940000BE
:100380000895FC01A48DA80FB92FB11DA35ABF4F2A
:100390002C91848D90E001968F739927848FA68984
:1003A000B7892C93A089B1898C91837080648C93D8
:1003B000938D848D981306C00288F389E02D808187
:1003C0008F7D80830895EF92FF920F931F93CF93B9
:1003D000DF93EC0181E0888F9B8D8C8D98131AC080
:1003E000E889F989808185FF15C09FB7F894EE8967
:1003F000FF896083E889F9898081837080648083C4
:100400009FBF81E090E0DF91CF911F910F91FF900E
:10041000EF900895F62E0B8D10E00F5F1F4F0F73B6
:100420001127E02E8C8D8E110CC00FB607FCFACF71
:10043000E889F989808185FFF5CFCE010E94C1014D
:10044000F1CFEB8DEC0FFD2FF11DE35AFF4FF08242
:100450009FB7F8940B8FEA89FB8980818062CFCFA8
:10046000CF93DF93EC01888D8823B9F0AA89BB89EB
:10047000E889F9898C9185FD03C0808186FD0DC0D6
:100480000FB607FCF7CF8C9185FFF2CF808185FFF7
:10049000EDCFCE010E94C101E9CFDF91CF91089548
:1004A00020915701260F3327331F21323105ECF4F9
:1004B0002091EB01FC0190E080E0243069F082E0C3
:1004C0000895A09157012191AC01495C5E4FA40FA2
:1004D000B52FB11D2C930196861798F38091570183
:1004E000680F6093570180E0089581E008951092AD
:1004F000EB0181E08093EA011092C50161E082E1A5
:100500000E94BF0061E083E10E94BF00E9EBF0E0E0
:1005100080818E7F808380818D7F808380E2809345
:10052000B80085E48093BC000895CF93DF9391E0F9
:10053000909336018823B9F0C091B800D091BA00E9
:100540008091BC008A7B8093BC0060E082E10E94C5
:10055000BF0060E083E10E94BF000E947702D09359
:10056000BA00C093B800DF91CF9108958F929F9207
:10057000AF92BF92CF92DF92EF92FF920F931F93B1
:10058000CF93DF93D0911402D13208F0D7C0182F47
:10059000C09113020E941C016B017C018091EB0150
:1005A00081116BC082E08093EB011093EA018FEF21
:1005B0008093E9011092E801D093E701A3EFB1E045
:1005C000E7ECF1E080E0D81391C01092C601809171
:1005D000C601CC0FC82BC093C6018091C5018130E4
:1005E00009F088C01092C5010E941C016B017C01BA
:1005F0008091C6018093BB008091ED019091EE0146
:10060000A091EF01B091F001892B8A2B8B2BA1F0E7
:100610000E941C010091ED011091EE012091EF016B
:100620003091F0016C197D098E099F090617170793
:100630002807390708F442C08091BC0083FDD8CF59
:1006400085EC8093BC000E941C016B017C018091B1
:10065000EB01823009F450C08091E9018F3F09F429
:100660006FC08091E901803209F46CC08091E9018A
:10067000803309F469C084E026C08091ED01909137
:10068000EE01A091EF01B091F001892B8A2B8B2B09
:1006900009F484CF0E941C018090ED019090EE013E
:1006A000A090EF01B090F0016C197D098E099F09AF
:1006B00086169706A806B90608F070CF8091EC015F
:1006C0000E94950285E01092F2011092140210929D
:1006D000F101DF91CF911F910F91FF90EF90DF908B
:1006E000CF90BF90AF909F908F9008959D919193E0
:1006F0008F5F69CF85EEA5CF8091ED019091EE01DE
:10070000A091EF01B091F001892B8A2B8B2B09F47A
:100710009ECF0E941C010091ED011091EE012091ED
:10072000EF013091F0016C197D098E099F090617C0
:1007300017072807390708F08ACFC0CF81E0C3CF59
:1007400080E0C1CF82E0BFCF83E0BDCF0895E091CC
:10075000360280913502E81730F4F0E0EB5EFD4F91
:10076000808190E008958FEF9FEF0895809135028A
:1007700090913602891B990B0895CF92DF92EF92E8
:10078000FF920F931F93CF93DF937C01CB018A01DC
:100790002091F101222389F0EB016B01C40ED51EDB
:1007A000CC15DD0569F06991D701ED91FC910190BF
:1007B000F081E02DC7010995F3CF642F0E9450020C
:1007C000C801DF91CF911F910F91FF90EF90DF90C3
:1007D000CF900895CF93DF931F92CDB7DEB7698393
:1007E0002091F1012223F9F020911402203258F0D7
:1007F00021E030E0FC013383228390E080E00F9021
:10080000DF91CF9108958091F201E82FF0E0ED5053
:10081000FE4F998190838F5F8093F2018093140241
:1008200081E090E0ECCF61E0CE0101960E945002A1
:10083000F7CF682F84ED92E00C94EA0390E080E01B
:100840000895FC0101900020E9F73197AF01481BA2
:10085000590BBC0187E392E00C9443018F929F9265
:10086000AF92BF920F931F93CF93DF93CDB7DEB7B5
:10087000A1970FB6F894DEBF0FBECDBF19A24230CC
:1008800008F44AE08E010F5D1F4F842E912CB12C8D
:10089000A12CA50194010E94AE0FE62FB901CA0157
:1008A000EA30F4F4E05DD801EE938D01232B242B84
:1008B000252B79F790E080E0109719F0CD010E9488
:1008C0002104A1960FB6F894DEBF0FBECDBFDF9115
:1008D000CF911F910F91BF90AF909F908F900895EF
:1008E000E95CE1CF84E291E00C9421044F925F92A5
:1008F0006F927F928F929F92AF92BF92CF92DF9230
:10090000EF92FF926B017C01AC019B010E94940F5E
:10091000882381F086E291E0FF90EF90DF90CF9006
:10092000BF90AF909F908F907F906F905F904F900F
:100930000C94210446015701E894B7F82FEF3FEFDC
:100940004FE75FE7C501B4010E94940F81110DC00C
:100950002FEF3FEF4FE75FE7C501B4010E94510D54
:1009600018161CF48AE291E0D7CF2FEF3FEF4FE744
:100970005FE4C701B6010E94D00E18161CF48EE287
:1009800091E0CACF2FEF3FEF4FE75FECC701B60111
:100990000E94510D87FDF3CF20E030E0A901C7018F
:1009A000B6010E94510DB12CA12C87FF0AC06DE247
:1009B00087E392E00E94E3015C01F7FAF094F7F814
:1009C000F0942AE037ED43EA5BE3C701B6010E94E9
:1009D000B60C2B013C010E94C80D6B017C010E94EA
:1009E000F70D9B01AC01C301B2010E94B50C2B01B4
:1009F0003C014AE0C701B6010E942E047C01EA0CCA
:100A0000FB1C6EE287E392E00E94E301E80EF91E10
:100A100020E030E040E251E4C301B2010E94DD0E6B
:100A20002B013C010E94C80D4B01B12CA12C4AE0C6
:100A3000C501B4010E942E04E80EF91EC501B401DF
:100A40000E94F70D9B01AC01C301B2010E94B50CDD
:100A500020E030E040E251E40E94DD0E0E94C80D2B
:100A600090E080E04AE00E942E048E0D9F1DFF90D2
:100A7000EF90DF90CF90BF90AF909F908F907F903E
:100A80006F905F904F900895CF92DF92EF92FF9218
:100A90000F931F930E941C016B017C018091EB015D
:100AA000811165C081E08093EB018093EA019FEFA3
:100AB0009093E9011092E80195E09093E70180930B
:100AC000C6018091C601806D8093C6018091C501E9
:100AD000813009F07DC01092C5010E941C016B019C
:100AE0007C018091C6018093BB008091ED019091C3
:100AF000EE01A091EF01B091F001892B8A2B8B2B95
:100B0000A1F00E941C010091ED011091EE012091D5
:100B1000EF013091F0016C197D098E099F090617CC
:100B200017072807390708F443C08091BC0083FDEC
:100B3000D8CF85EC8093BC000E941C016B017C0126
:100B40008091EB01813009F445C08091E801863045
:100B500008F062C08091E801A7ECB1E0E5E1F2E0C5
:100B600090E0981751F12D9121939F5FFACF8091DA
:100B7000ED019091EE01A091EF01B091F001892B70
:100B80008A2B8B2B09F48ACF0E941C010091ED0166
:100B90001091EE012091EF013091F0016C197D0967
:100BA0008E099F09061717072807390708F076CF1F
:100BB0008091EC010E94950280E0109236028093B1
:100BC00035021F910F91FF90EF90DF90CF90089525
:100BD00085EEB0CF8091ED019091EE01A091EF01F3
:100BE000B091F001892B8A2B8B2B09F4A9CF0E949D
:100BF0001C010091ED011091EE012091EF01309167
:100C0000F0016C197D098E099F090617170728073F
:100C1000390708F095CFCCCF86E09ECF85ED809345
:100C2000BC008091ED019091EE01A091EF01B09197
:100C3000F0010796A11DB11D23E0B695A7959795E4
:100C400087952A95D1F72091BC0024FD03C010920E
:100C5000EB0108954091ED015091EE016091EF019B
:100C60007091F001452B462B472B69F30097A105A6
:100C7000B10541F025E12A95F1F700000197A1099E
:100C8000B109E1CF8091EC010C9495021F920F9273
:100C90000FB60F9211242F933F938F939F93AF938F
:100CA000BF938091BD019091BE01A091BF01B09111
:100CB000C0013091BC0126E0230F2D3758F5029674
:100CC000A11DB11D2093BC018093BD019093BE0175
:100CD000A093BF01B093C0018091C1019091C20166
:100CE000A091C301B091C4010196A11DB11D8093D3
:100CF000C1019093C201A093C301B093C401BF91FD
:100D0000AF919F918F913F912F910F900FBE0F90B8
:100D10001F90189529E8230F0396A11DB11DD2CF6E
:100D20001F920F920FB60F9211242F933F934F9360
:100D30005F936F937F938F939F93AF93BF93EF9343
:100D4000FF9387E392E00E94C101FF91EF91BF9171
:100D5000AF919F918F917F916F915F914F913F9153
:100D60002F910F900FBE0F901F9018951F920F920A
:100D70000FB60F9211242F938F939F93EF93FF93AE
:100D8000E0914702F09148028081E0914D02F0919C
:100D90004E0282FD1BC09081809150028F5F8F7345
:100DA00020915102821741F0E0915002F0E0E95C9D
:100DB000FD4F958F80935002FF91EF919F918F91FE
:100DC0002F910F900FBE0F901F9018958081F4CF38
:100DD0001F920F920FB60F9211242F933F934F93B0
:100DE0005F936F937F938F939F93AF93BF93EF9393
:100DF000FF938091B900887F803609F44AC0F0F5EE
:100E0000883209F4A7C018F5803109F49BC0B8F402
:100E1000882309F4F9C0883009F494C0FF91EF9158
:100E2000BF91AF919F918F917F916F915F914F9102
:100E30003F912F910F900FBE0F901F901895883102
:100E400009F488C0803251F78093E90114C08034DE
:100E500009F49DC040F48033B9F38833F9F68093E8
:100E6000E90185ECB0C0803509F485C0883509F406
:100E700096C0883499F60E940E06D0CF883909F4BE
:100E80008CC038F5883729F050F4883611F0803757
:100E900029F683E08093EB011092790157C08838DE
:100EA00009F47BC0803919F0803809F0B7CF809100
:100EB0007901803208F071C0E091790181E08E0FF4
:100EC000809379018091BB00F0E0E75AFE4F808368
:100ED0003DC0803B39F0E0F4803A09F479C0883AAB
:100EE00009F09CCF84E08093EB011092580110929E
:100EF0005701E0917C01F0917D01099580915701A6
:100F000081110FC081E0809357011092370109C011
:100F1000803C09F4A6CF883C09F4A3CF883B09F0B4
:100F20007DCFE091580181E08E0F80935801F0E071
:100F3000E95CFE4F80818093BB00909158018091C5
:100F4000570129C08091C6018093BB0085EC809336
:100F5000BC0064CF9091E8018091E701981758F5A3
:100F6000E091E80181E08E0F8093E801F0E0E95321
:100F7000FE4F8081E9CFE091E80181E08E0F809300
:100F8000E8018091BB00F0E0E953FE4F808390912F
:100F9000E8018091E7019817C8F285E8D8CFE09181
:100FA000E80181E08E0F8093E8018091BB00F0E0C2
:100FB000E953FE4F80838091EA0181115CCF81E08B
:100FC0008093C50184EA8093BC001092EB0126CF88
:100FD00085EC8093BC001092EB0180917901803206
:100FE00030F4E0917901F0E0E75AFE4F1082609111
:100FF000790170E0E0917A01F0917B0189E591E05F
:101000000995109279010ACF1092E90134CFE7E3F4
:10101000F2E01382128288EE93E0A0E0B0E08483D5
:101020009583A683B78324E031E03183208325ECC8
:1010300030E03587248724EC30E03787268720ECA2
:1010400030E0318B208B21EC30E0338B228B22EC93
:1010500030E0358B248B26EC30E0378B268B118EDD
:10106000128E138E148EE4EDF2E0138212828483CA
:101070009583A683B78386E191E091838083089569
:10108000CF93DF93CDB7DEB7A2970FB6F894DEBF4C
:101090000FBECDBF789484B5826084BD84B5816075
:1010A00084BD85B5826085BD85B5816085BD809133
:1010B0006E00816080936E001092810080918100AB
:1010C00082608093810080918100816080938100A3
:1010D000809180008160809380008091B100846065
:1010E0008093B1008091B00081608093B0008091C6
:1010F0007A00846080937A0080917A008260809385
:101100007A0080917A008E7F80937A0080917A00B5
:10111000806880937A001092C100E0914702F091BC
:10112000480282E08083E0914302F0914402108201
:10113000E0914502F091460283E3808310924F02D2
:10114000E0914B02F0914C0286E08083E0914902ED
:10115000F0914A02808180618083E0914902F091A0
:101160004A02808188608083E0914902F0914A02BE
:10117000808180688083E0914902F0914A028081F9
:101180008F7D808310923602109235021092F20108
:10119000109214020E94770281E491E090937D0105
:1011A00080937C0182E491E090937B0180937A01AB
:1011B00081E08093F10188E6809313028BE690E052
:1011C0000E94190490E080E00E94190481E00E94CE
:1011D000B602209092013090930180918E019091FF
:1011E0008F01A0919001B091910189839A83AB8383
:1011F000BC8380918A0190918B01A0918C01B09168
:101200008D018D839E83AF83B88798EC29163104B6
:101210000CF0DFC0A1E0A093F101B8E6B093130297
:101220001092F201109214028BE390E00E941904D4
:1012300080E00E94B6020E9444050E94AC00182F74
:101240000E94AC001A87198669857A85682B792BEC
:10125000072E000C880B990B0E94F90D20E030E05E
:1012600040E858E30E94DD0E6B017C01C092B8019A
:10127000D092B901E092BA01F092BB010E94AC0099
:10128000182F0E94AC001E871D866D857E85682BF9
:10129000792B072E000C880B990B0E94F90D20E08A
:1012A00030E040E858E30E94DD0E4B015C01809283
:1012B000B4019092B501A092B601B092B7010E941C
:1012C000AC00182F0E94AC00188B1F862F85388920
:1012D000822B932BBC01990F880B990B0E94F90D5F
:1012E00020E030E040E858E30E94DD0E6093B0015A
:1012F0007093B1018093B2019093B3019B01AC0153
:101300000E94DD0E2B013C01A7019601C701B60129
:101310000E94DD0EA30192010E94B60C0E94500FA4
:101320009B01AC01C501B4010E94560D0E94220D23
:1013300020E030E044E353E40E94DD0E2BED3FE07B
:1013400049E450E40E94560D29813A814B815C8129
:101350000E94B60C60938E0170938F018093900170
:1013600090939101A5019401C501B4010E94DD0E85
:10137000A30192010E94B60C0E94500F9B01AC0188
:10138000C701B60190580E94560D0E94220D20E020
:1013900030E044E353E40E94DD0E2BED3FE049E4EE
:1013A00050E40E94560D2D813E814F8158850E9448
:1013B000B60C60938A0170938B0180938C0190939B
:1013C0008D013FEF231A330A30929301209292014C
:1013D00000CF20E030E048E453E469817A818B81DA
:1013E0009C810E94560D60938E0170938F018093B3
:1013F00090019093910120E030E048E453E46D8146
:101400007E818F8198850E94560D60938A0170932A
:101410008B0180938C0190938D0110929301109217
:101420009201009192011091930180918601909117
:101430008701A0918801B091890189879A87AB873C
:10144000BC878091820190918301A0918401B09129
:10145000850189839A83AB83BC8380917E019091BF
:101460007F01A0918001B09181018D839E83AF8324
:10147000B887083C11050CF0ADC091E09093F101E4
:10148000A8E6A09313021092F2011092140283E4D2
:1014900090E00E94190480E00E94B6020E94440578
:1014A0000E94AC00F82E0E94AC00FA8A198A698961
:1014B0007A89682B792B072E000C880B990B0E94D8
:1014C000F90D2B013C014092AC015092AD016092AC
:1014D000AE017092AF010E94AC00F82E0E94AC00E9
:1014E000FC8A1B8A2B893C89822B932BBC01990F88
:1014F000880B990B0E94F90D4B015C018092A801A9
:101500009092A901A092AA01B092AB010E94AC00F6
:10151000F82E0E94AC00FE8A1D8AAD89BE898A2BF6
:101520009B2BBC01990F880B990B0E94F90D6B0145
:101530007C01C092A401D092A501E092A601F09294
:10154000A70120E030E043E053E4C301B2010E9470
:10155000560D29853A854B855C850E94B60C6093B3
:10156000860170938701809388019093890120E020
:1015700030E043E053E4C501B4010E94560D2981D7
:101580003A814B815C810E94B60C6093820170931A
:101590008301809384019093850120E030E043E053
:1015A00053E4C701B6010E94560D2D813E814F8143
:1015B00058850E94B60C60937E0170937F018093E2
:1015C0008001909381010F5F1F4F1093930100934F
:1015D000920127CF20E030E048E453E469857A8522
:1015E0008B859C850E94560D6093860170938701C0
:1015F000809388019093890120E030E048E453E42F
:1016000069817A818B819C810E94560D6093820151
:1016100070938301809384019093850120E030E0F2
:1016200048E453E46D817E818F8198850E94560D38
:1016300060937E0170937F0180938001909381017C
:1016400008E683E00E940B01BC01990F880B990BFF
:101650000E94F90D609398017093990180939A010B
:1016600090939B0181E00E940B01BC01990F880BB4
:10167000990B0E94F90D6093A0017093A1018093D2
:10168000A2019093A30182E00E940B01BC01990F7B
:10169000880B990B0E94F90D60939C0170939D013A
:1016A00080939E0190939F0184E00E940B01BC01F6
:1016B000990F880B990B0E94F90D60939401709318
:1016C0009501809396019093970111E01093F10199
:1016D000009313021092F201109214028BE390E037
:1016E0000E94190480E00E94B6020E9444050E94F4
:1016F000AC00F82E0E94AC00F88E1F8A2F89388D1E
:10170000822B932BBC01990F880B990B0E94F90D2A
:1017100020E030E040E858E30E94DD0E6B017C01E0
:10172000C092B801D092B901E092BA01F092BB0127
:101730000E94AC00B82E0E94AC00BA8E198E698D42
:101740007A8D682B792B072E000C880B990B0E9441
:10175000F90D20E030E040E858E30E94DD0E609390
:10176000B4017093B5018093B6019093B7010E94C4
:10177000AC00B82E0E94AC00BC8E1B8E6B8D7C8D95
:10178000682B792B072E000C880B990B0E94F90D02
:1017900020E030E040E858E30E94DD0E6093B001A5
:1017A0007093B1018093B2019093B3011093F10152
:1017B0001092F2011092140283E490E00E94190446
:1017C00080E00E94B6020E9444050E94AC00182FDF
:1017D0000E94AC001E8F1D8E6D8D7E8D682B792B27
:1017E000072E000C880B990B0E94F90D6093AC0139
:1017F0007093AD018093AE019093AF010E94AC0055
:10180000182F0E94AC0018A31F8E6F8D78A1682B33
:10181000792B072E000C880B990B0E94F90D609311
:10182000A8017093A9018093AA019093AB010E9433
:10183000AC00182F0E94AC001AA319A269A17AA1CA
:10184000682B792B072E000C880B990B0E94F90D41
:101850006093A4017093A5018093A6019093A701C2
:10186000C701B6010E9476040E9472046091B4011F
:101870007091B5018091B6019091B7010E947604F4
:101880000E9472046091B0017091B1018091B20127
:101890009091B3010E9476040E9472046091AC01A1
:1018A0007091AD018091AE019091AF010E947604DC
:1018B0000E9472046091A8017091A9018091AA010F
:1018C0009091AB010E9476040E9472046091A40181
:1018D0007091A5018091A6019091A7010E947604C4
:1018E0000E9472046091A0017091A1018091A201F7
:1018F0009091A3010E9476040E94720460919C0161
:1019000070919D0180919E0190919F010E947604AB
:101910000E947204609198017091990180919A01DE
:1019200090919B010E9476040E9472046091940140
:101930007091950180919601909197010E94760493
:1019400084E391E00E94210482E391E00E9421045B
:1019500080E090E0892B09F474CE0E94AD018823C9
:1019600009F46FCE0E9400006CCE5058BB27AA2706
:101970000E94CD0C0C94960E0E94880E38F00E94A6
:101980008F0E20F039F49F3F19F426F40C945E0E6C
:101990000EF4E095E7FB0C94580EE92F0E94A70E79
:1019A00058F3BA17620773078407950720F079F494
:1019B000A6F50C94C90E0EF4E0950B2EBA2FA02DAF
:1019C0000B01B90190010C01CA01A0011124FF27EC
:1019D000591B99F0593F50F4503E68F11A16F040E7
:1019E000A22F232F342F4427585FF3CF46953795E6
:1019F0002795A795F0405395C9F77EF41F16BA0BAB
:101A0000620B730B840BBAF09150A1F0FF0FBB1F58
:101A1000661F771F881FC2F70EC0BA0F621F731FA1
:101A2000841F48F4879577956795B795F7959E3FFE
:101A300008F0B0CF9395880F08F09927EE0F97958F
:101A400087950895DF93DD27B92FBF7740E85FE3DF
:101A50001616170648075B0718F4D92F0E94D50EF3
:101A60009F938F937F936F930E94900FE8E6F0E02F
:101A70000E94610E0E94960E2F913F914F915F91AF
:101A80000E94F00EDD2351F09058A2EA2AED3FE0CB
:101A900049EC5FE3D0785D270E94CD0CDF910C9478
:101AA000960E0E94340E08F481E008950E946A0D9B
:101AB0000C94960E0E948F0E58F00E94880E40F0F3
:101AC00029F45F3F29F00C94580E51110C94CA0E62
:101AD0000C945E0E0E94A70E68F39923B1F3552370
:101AE00091F3951B550BBB27AA2762177307840731
:101AF00038F09F5F5F4F220F331F441FAA1FA9F3C7
:101B000035D00E2E3AF0E0E832D091505040E695B4
:101B1000001CCAF72BD0FE2F29D0660F771F881F15
:101B2000BB1F261737074807AB07B0E809F0BB0B08
:101B3000802DBF01FF2793585F4F3AF09E3F51051C
:101B400078F00C94580E0C94CA0E5F3FE4F3983E64
:101B5000D4F3869577956795B795F7959F5FC9F705
:101B6000880F911D9695879597F90895E1E0660F86
:101B7000771F881FBB1F621773078407BA0720F0FF
:101B8000621B730B840BBA0BEE1F88F7E095089568
:101B90000E94AF0E88F09F5798F0B92F9927B75140
:101BA000B0F0E1F0660F771F881F991F1AF0BA9501
:101BB000C9F714C0B13091F00E94C90EB1E0089588
:101BC0000C94C90E672F782F8827B85F39F0B93F7A
:101BD000CCF3869577956795B395D9F73EF49095B4
:101BE0008095709561957F4F8F4F9F4F0895E89432
:101BF00009C097FB3EF490958095709561957F4F55
:101C00008F4F9F4F9923A9F0F92F96E9BB27939502
:101C1000F695879577956795B795F111F8CFFAF412
:101C2000BB0F11F460FF1BC06F5F7F4F8F4F9F4F43
:101C300016C0882311F096E911C0772321F09EE8A1
:101C4000872F762F05C0662371F096E8862F70E007
:101C500060E02AF09A95660F771F881FDAF7880FE1
:101C60009695879597F90895990F0008550FAA0B37
:101C7000E0E8FEEF16161706E807F907C0F012169F
:101C80001306E407F50798F0621B730B840B950BA2
:101C900039F40A2661F0232B242B252B21F40895F7
:101CA0000A2609F4A140A6958FEF811D811D089594
:101CB00097F99F6780E870E060E008959FEF80ECFF
:101CC0000895DF93CF931F930F93FF92EF92DF92CC
:101CD0007B018C01689406C0DA2EEF010E94F00EA1
:101CE000FE01E894A5912591359145915591A6F372
:101CF000EF010E94CD0CFE019701A801DA9469F76B
:101D0000DF90EF90FF900F911F91CF91DF91089599
:101D100000240A94161617061806090608950024CA
:101D20000A9412161306140605060895092E039444
:101D3000000C11F4882352F0BB0F40F4BF2B11F4B8
:101D400060FF04C06F5F7F4F8F4F9F4F089557FD17
:101D50009058440F551F59F05F3F71F04795880F19
:101D600097FB991F61F09F3F79F0879508951216B0
:101D700013061406551FF2CF4695F1DF08C016165C
:101D800017061806991FF1CF86957105610508940D
:101D90000895E894BB2766277727CB0197F9089524
:101DA0000E94340E08F48FEF08959B01AC0160E0AF
:101DB00070E080E89FE30C94560D0E94F00E0C94A6
:101DC000960E0E94880E38F00E948F0E20F0952308
:101DD00011F00C94580E0C945E0E11240C94CA0E43
:101DE0000E94A70E70F3959FC1F3950F50E0551F09
:101DF000629FF001729FBB27F00DB11D639FAA2760
:101E0000F00DB11DAA1F649F6627B00DA11D661FAE
:101E1000829F2227B00DA11D621F739FB00DA11DCF
:101E2000621F839FA00D611D221F749F3327A00D89
:101E3000611D231F849F600D211D822F762F6A2F25
:101E400011249F5750409AF0F1F088234AF0EE0F8A
:101E5000FF1FBB1F661F771F881F91505040A9F7B7
:101E60009E3F510580F00C94580E0C94CA0E5F3FB3
:101E7000E4F3983ED4F3869577956795B795F795F3
:101E8000E7959F5FC1F7FE2B880F911D969587956B
:101E900097F9089519F416F40C945E0E0C94990FAA
:101EA0000E94AF0EB8F39923C9F3B6F39F57550BB1
:101EB00087FF0E94A70F0024A0E640EA9001805807
:101EC0005695979528F4805C660F771F881F20F041
:101ED00026173707480730F4621B730B840B202941
:101EE00031294A2BA69517940794202531254A2796
:101EF00058F7660F771F881F20F026173707480707
:101F000030F4620B730B840B200D311D411DA09525
:101F100081F7B901842F9158880F96958795089578
:101F20009B01AC010C94DD0E0E94340E880B990BC2
:101F300008959F3F31F0915020F4879577956795EC
:101F4000B795880F911D9695879597F908959150AB
:101F50005040660F771F881FD2F70895A1E21A2E0E
:101F6000AA1BBB1BFD010DC0AA1FBB1FEE1FFF1F3D
:101F7000A217B307E407F50720F0A21BB30BE40B8D
:101F8000F50B661F771F881F991F1A9469F76095D4
:101F90007095809590959B01AC01BD01CF0108958E
:101FA000EE0FFF1F0590F491E02D0994F894FFCFF8
:101FB00000000000E301430170013002A1017F0134
:101FC000930100000000EA03BD031E04A603B6034C
:101FD0009900A70320006E616E00696E66006F763F
:061FE00066000D0A00007E
:00000001FF
